S01F00004F6E2044656D616E642054726166666963204C696768742E73726563E8
S11300000C942A000C943E000C943C000C943C008C
S11300100C943C000C943C000C943C000C943C006C
S11300200C943C000C943C000C943C000C943C005C
S11300300C943C000C943C000C943C000C943C004C
S11300400C943C000C943C000C943C000C943C003C
S11300500C943C0011241FBECFE5D8E0DEBFCDBF19
S113006020E0A0E6B0E001C01D92A436B207E1F79B
S11300700E9450020C94DD040C9400001F920F9215
S11300800FB60F9211242F933F934F935F936F9367
S11300907F938F939F93AF93BF93EF93FF9380913D
S11300A063008130D1F460E00E946E0161E081E080
S11300B00E94980162E081E00E94980160E070E093
S11300C088EA92E40E94CA0160E081E00E949801FB
S11300D062E080E00E9498015AC080916100813002
S11300E029F080916200813009F051C062E081E022
S11300F00E946E0160E081E00E94980162E081E06C
S11301000E946E0160E080E00E94980162E080E05D
S11301100E94980161E080E00E9498018AE0809347
S1130120600013C061E080E00E94C20161E081E0F0
S11301300E94C20160E070E088EC91E40E94CA0170
S113014080916000815080936000809160008230D3
S113015048F761E081E00E94980162E081E00E943A
S1130160980161E080E00E94980160E081E00E94D3
S11301706E0162E080E00E946E0160E070E088EA57
S113018092E40E94CA0160E081E00E94980110920A
S1130190630010926100109262007894FF91EF91D5
S11301A0BF91AF919F918F917F916F915F914F918B
S11301B03F912F910F900FBE0F901F90189560E004
S11301C080E00E94610161E080E00E94610162E0E0
S11301D080E00E94610160E081E00E94610161E0D1
S11301E081E00E94610162E081E00E94610160E0BF
S11301F080E00E94980161E080E00E94980162E042
S113020080E00E94980160E081E00E94980161E032
S113021081E00E94980162E081E00E94980162E01E
S113022083E00E94540180E00E9477038FB78068C6
S11302308FBF85B7836085BF60E080E00E946E0158
S1130240C1E0C093620060E070E080EA90E40E9444
S11302500D0260E080E00E9498011092620061E06B
S113026080E00E946E01C093610060E070E088EA63
S113027092E40E940D0261E080E00E9498011092D5
S1130280610062E080E00E946E01C093630060E060
S113029070E088EA92E40E940D0262E080E00E942D
S11302A0980110926300C8CF843038F4683038F471
S11302B040E00E94550280E0089581E0089581E0C5
S11302C00895683038F4843038F441E00E945502CF
S11302D081E0089580E0089580E00895683010F585
S11302E0843010F5813061F028F0823079F0833069
S11302F099F01CC041E080E00E94CC0281E00895A6
S113030041E081E00E94CC0281E0089541E082E076
S11303100E94CC0281E0089541E083E00E94CC0277
S113032081E0089580E0089580E0089581E00895D3
S1130330683010F5843010F5813061F028F0823097
S113034079F0833099F01CC040E080E00E94CC0238
S113035081E0089540E081E00E94CC0281E00895AC
S113036040E082E00E94CC0281E0089540E083E016
S11303700E94CC0281E0089580E0089580E0089511
S113038081E00895843020F4683010F40E9443031F
S113039080E008958F929F92AF92BF92CF92DF92A6
S11303A0EF92FF924B015C018FB780688FBFC12C25
S11303B0D12C760118C089E082BF89B7816089BFDA
S11303C085E883BF08B600FEFDCF88B7816088BF8B
S11303D013BE20E030E040E85FE3C701B6010E94AD
S11303E08A036B017C0120E030E040E850E4C50161
S11303F0B4010E9470049B01AC01C701B6010E94C4
S1130400F6038823C4F2F894FF90EF90DF90CF9026
S1130410BF90AF909F908F9008958F929F92AF92CC
S1130420BF92CF92DF92EF92FF924B015C018FB7A4
S113043080688FBFC12CD12C760118C089E084BD9F
S113044089B7806489BF87E885BD08B606FEFDCFFD
S113045088B7806488BF13BE20E030E040E85FE3E3
S1130460C701B6010E948A036B017C012AE939E9BC
S113047049E750E4C501B4010E9470049B01AC013A
S1130480C701B6010E94F6038823C4F2F894FF90D2
S1130490EF90DF90CF90BF90AF909F908F90089592
S11304A00E94DF0080E090E00895843008F072C07C
S11304B0683008F06FC0423008F06CC0813001F140
S11304C030F08230B1F1833009F44CC063C0413064
S11304D059F42AB381E090E002C0880F991F6A950D
S11304E0E2F7822B8ABB56C02AB381E090E002C0B7
S11304F0880F991F6A95E2F7809582238ABB4AC0C8
S1130500413059F427B381E090E002C0880F991F6D
S11305106A95E2F7822B87BB3DC027B381E090E068
S113052002C0880F991F6A95E2F78095822387BBE2
S113053031C0413059F424B381E090E002C0880F07
S1130540991F6A95E2F7822B84BB24C024B381E00F
S113055090E002C0880F991F6A95E2F78095822384
S113056084BB18C0413059F421B381E090E002C04B
S1130570880F991F6A95E2F7822B81BB0BC021B3C8
S113058081E090E002C0880F991F6A95E2F7809598
S1130590822381BB81E00895843008F072C0683002
S11305A008F06FC0423008F06CC0813001F130F0C7
S11305B08230B1F1833009F44CC063C0413059F446
S11305C02BB381E090E002C0880F991F6A95E2F78F
S11305D0822B8BBB56C02BB381E090E002C0880F06
S11305E0991F6A95E2F7809582238BBB4AC04130FC
S11305F059F428B381E090E002C0880F991F6A95EE
S1130600E2F7822B88BB3DC028B381E090E002C0B2
S1130610880F991F6A95E2F78095822388BB31C0C1
S1130620413059F425B381E090E002C0880F991F4E
S11306306A95E2F7822B85BB24C025B381E090E064
S113064002C0880F991F6A95E2F78095822385BBC3
S113065018C0413059F422B381E090E002C0880F01
S1130660991F6A95E2F7822B82BB0BC022B381E00B
S113067090E002C0880F991F6A95E2F78095822363
S113068082BB81E00895813089F028F08230C9F07E
S1130690833011F108952BB381E090E002C0880FFC
S11306A0991F6A95E2F782278BBB089528B381E0EE
S11306B090E002C0880F991F6A95E2F7822788BBF1
S11306C0089525B381E090E002C0880F991F6A95D0
S11306D0E2F7822785BB089522B381E090E002C04F
S11306E0880F991F6A95E2F7822782BB08958130AB
S11306F041F018F0823049F008958BB780648BBFC5
S113070008958BB780688BBF08958BB780628BBFC9
S113071008955058BB27AA270E94A1030C943604BD
S11307200E94280438F00E942F0420F039F49F3FDF
S113073019F426F40C9425040EF4E095E7FB0C94CC
S11307401F04E92F0E94470458F3BA17620773077E
S11307508407950720F079F4A6F50C9469040EF447
S1130760E0950B2EBA2FA02D0B01B90190010C01BD
S1130770CA01A0011124FF27591B99F0593F50F4D5
S1130780503E68F11A16F040A22F232F342F44272D
S1130790585FF3CF469537952795A795F040539525
S11307A0C9F77EF41F16BA0B620B730B840BBAF0F5
S11307B09150A1F0FF0FBB1F661F771F881FC2F760
S11307C00EC0BA0F621F731F841F48F48795779574
S11307D06795B795F7959E3F08F0B0CF9395880F2E
S11307E008F09927EE0F9795879508950E94FB03CB
S11307F008F481E00895990F0008550FAA0BE0E86A
S1130800FEEF16161706E807F907C0F012161306CE
S1130810E407F50798F0621B730B840B950B39F40E
S11308200A2661F0232B242B252B21F408950A2674
S113083009F4A140A6958FEF811D811D089597F9B4
S11308409F6780E870E060E008959FEF80EC089572
S113085000240A941616170618060906089500249B
S11308600A9412161306140605060895092E039415
S1130870000C11F4882352F0BB0F40F4BF2B11F489
S113088060FF04C06F5F7F4F8F4F9F4F089557FDE8
S11308909058440F551F59F05F3F71F04795880FEA
S11308A097FB991F61F09F3F79F087950895121681
S11308B013061406551FF2CF4695F1DF08C016162D
S11308C017061806991FF1CF8695710561050894DE
S11308D00895E894BB2766277727CB0197F90895F5
S11308E00E9483040C9436040E94280438F00E9469
S11308F02F0420F0952311F00C941F040C9425046C
S113090011240C946A040E94470470F3959FC1F368
S1130910950F50E0551F629FF001729FBB27F00DA9
S1130920B11D639FAA27F00DB11DAA1F649F6627FE
S1130930B00DA11D661F829F2227B00DA11D621F4D
S1130940739FB00DA11D621F839FA00D611D221F07
S1130950749F3327A00D611D231F849F600D211DEB
S1130960822F762F6A2F11249F5750409AF0F1F06E
S113097088234AF0EE0FFF1FBB1F661F771F881FD7
S113098091505040A9F79E3F510580F00C941F04EC
S11309900C946A045F3FE4F3983ED4F3869577950C
S11309A06795B795F795E7959F5FC1F7FE2B880F7D
S11109B0911D9695879597F90895F894FFCFB9
S9030000FC
